:100000000C9434000C9451000C9451000C94510049
:100010000C9451000C9451000C9451000C9451001C
:100020000C9451000C9451000C9451000C9451000C
:100030000C9451000C9451000C9451000C945100FC
:100040000C9451000C9451000C9451000C945100EC
:100050000C9451000C9451000C9451000C945100DC
:100060000C9451000C94510011241FBECFEFD8E026
:10007000DEBFCDBF11E0A0E0B1E0EAE0FDE002C0EC
:1000800005900D92A231B107D9F721E0A2E1B1E0CC
:1000900001C01D92A732B207E1F70E94F4020C944E
:1000A00083060C940000CF93C82F9A01AB0187B14F
:1000B0008F7C87B960E074E284EF90E00E94550382
:1000C000CA01B90160517109810991092C2F30E0F1
:1000D000220F331F032E000C440B550B0E945503B7
:1000E0002093B800C43079F018F4C13031F023C047
:1000F000C03191F0C034C9F01EC0E9EBF0E080815E
:100100008C7F80831DC0E9EBF0E080818D7F808350
:1001100080818160808314C0E9EBF0E080818E7F74
:1001200080838081826080830BC0E9EBF0E0808176
:100130008D6F808305C0E9EBF0E080818C7F808348
:1001400084E08093BC00CF91089584EA8093BC0042
:100150008091BC008823E4F78091B900887F8830C3
:1001600021F0803119F481E0089581E008958093B1
:10017000BB0084E88093BC008091BC008823E4F736
:100180008091B900887F883131F0883231F0803435
:1001900029F481E0089581E0089581E0089584E9DB
:1001A0008093BC008091BC0084FDFCCF0895CF9368
:1001B000C82F660F609314010E94A500809312015E
:1001C000813031F0ECEBF0E080818068808310C0FA
:1001D000809114010E94B70080931201813019F0C0
:1001E0000E94CF0005C08C2F0E94B7000E94CF0054
:1001F000CF910895CF93DF9394EA9093BC009091B0
:10020000BC009923E4F79091B900987F9830B1F53C
:1002100090E0880F991F81608093BB0084E88093F1
:10022000BC008091BC008823E4F7EB018091B90009
:10023000887F883421F40E94CF0081E020C0803480
:1002400021F00E94CF0081E01AC084E88093BC00B6
:100250008091BC008823E4F78091B900887F8835BD
:1002600031F0803521F00E94CF0081E008C08091FC
:10027000BB0088830E94CF00888101C081E0DF91AC
:10028000CF91089566E782EF0E94D70066E781E08C
:100290000E94D70066E784EF0E94D70066E787E2F6
:1002A0000E94D70066E785EF0E94D70066E780EAE4
:1002B0000E94D70008951F93CF93DF93CDB7DEB789
:1002C00062970FB6F894DEBF0FBECDBF10E00AC034
:1002D00061E070E06C0F7D1F610F711D86E70E9469
:1002E000FA001F5F1231A0F38A8190E0982F8827CF
:1002F0002981822B90931E0180931D018C8190E0B7
:10030000982F88272B81822B9093180180931701B7
:100310008E8190E0982F88272D81822B9093200149
:1003200080931F01888590E0982F88272F81822B4A
:1003300090931A01809319018A8590E0982F88275D
:100340002985822B90931C0180931B018C8590E062
:10035000982F88272B85822B909326018093250147
:100360008E8590E0982F88272D85822B90931601FB
:1003700080931501888990E0982F88272F85822BFC
:1003800090932201809321018A8990E0982F8827F9
:100390002989822B909324018093230162960FB6C2
:1003A000F894DEBF0FBECDBFDF91CF911F910895AE
:1003B0004F925F926F927F928F929F92AF92BF9275
:1003C000CF92DF92EF92FF920F931F93CF93DF9321
:1003D00000D01F92CDB7DEB710E00AC061E070E038
:1003E0006C0F7D1F610F711D86E70E94FA001F5F71
:1003F0001330A0F3C980D12CE12CF12CB701A60158
:10040000032E3CE0440F551F661F771F3A95D1F726
:10041000302D8A81C82ED12CE12CF12CCC0CDD1C86
:10042000EE1CFF1CCC0CDD1CEE1CFF1CCC0CDD1CE0
:10043000EE1CFF1CCC0CDD1CEE1CFF1CC42AD52AB4
:10044000E62AF72A8B8182958F70C82AB701A60108
:10045000689412F875956795579547951694D1F756
:1004600040901D0150901E01612C712CD301C201DE
:10047000880F991FAA1FBB1F9A01AB01281B390BBC
:100480004A0B5B0BA0911701B09118010E948203E7
:100490004B015C01072E7BE0B594A7949794879459
:1004A0007A95D1F7702DD701C601689413F8B595E8
:1004B000A795979587951694D1F7BC01CD0164193E
:1004C0007509860997099B01AC010E9445039B01B0
:1004D000AC01012E1CE055954795379527951A9547
:1004E000D1F7102DA0911F01B09120010E9482032D
:1004F000DC01CB01072E7EE0B595A79597958795F2
:100500007A95D1F7702D880D991DAA1DBB1DAC01E0
:10051000BD01032E3AE075956795579547953A9535
:10052000D1F7302D8091190190911A01092E000CFC
:10053000AA0BBB0B880F991FAA1FBB1F880F991FFF
:10054000AA1FBB1F880F991FAA1FBB1F880F991FC7
:10055000AA1FBB1F8A019B01080F191F2A1F3B1FDF
:10056000C901B8010F900F900F90DF91CF911F91AB
:100570000F91FF90EF90DF90CF90BF90AF909F9042
:100580008F907F906F905F904F9008950F931F937F
:10059000CF93DF93CDB7DEB76E970FB6F894DEBF7B
:1005A0000FBECDBF9F938F937F936F9380E091E0B9
:1005B0009F938F938E010F5F1F4F1F930F930E9486
:1005C0009903C8010E9434030FB6F894DEBF0FBE32
:1005D000CDBF6E960FB6F894DEBF0FBECDBFDF91D4
:1005E000CF911F910F9108950E94120340EA56E89F
:1005F00061E070E081E00E9453000E9442010E948D
:100600005B0181E30E942D030E94D8010E94C60273
:100610002FEF83ED90E3215080409040E1F700C040
:100620000000EFCF8AB18E7F8AB98AB182608AB921
:100630001092C000E1ECF0E0108280818869808334
:10064000E2ECF0E0108280818660808387E690E0B3
:100650009093C5008093C40008959091C00095FFC9
:10066000FCCF8093C6000895AC0120E007C09091B4
:10067000C00095FFFCCF3093C6002F5FFA01E20F58
:10068000F11D30813111F3CF0895DB018F939F93DA
:100690000E947703BF91AF91A29F800D911DA39FF0
:1006A000900DB29F900D11240895A1E21A2EAA1B5D
:1006B000BB1BFD010DC0AA1FBB1FEE1FFF1FA21712
:1006C000B307E407F50720F0A21BB30BE40BF50B0F
:1006D000661F771F881F991F1A9469F76095709598
:1006E000809590959B01AC01BD01CF0108950E94BA
:1006F0008A03A59F900DB49F900DA49F800D911D1E
:1007000011240895B7FF0C9477030E947703821B8E
:10071000930B0895A29FB001B39FC001A39F700DDA
:10072000811D1124911DB29F700D811D1124911DF9
:100730000895AEE0B0E0EFE9F3E00C945A060D89BD
:100740001E8986E08C831A8309838FEF9FE79E833F
:100750008D83AE01475E5F4F6F89788DCE01019624
:100760000E94BB03EF81F885E00FF11F10822E96E7
:10077000E4E00C947606ABE0B0E0E1ECF3E00C943E
:100780004C066C017B018A01FC0117821682838171
:1007900081FFCCC1CE0101963C01F6019381F701A6
:1007A00093FD859193FF81917F01882309F4BAC15C
:1007B000853239F493FD859193FF81917F018532D4
:1007C00029F4B60190E00E94B205E7CF912C212CCC
:1007D000312CFFE1F315D8F08B3279F038F4803208
:1007E00079F08332A1F4232D20611DC08D3261F098
:1007F000803369F4232D216016C0832D8260382E4A
:10080000E32DE4603E2E2AC0F32DF8601DC037FCB6
:100810002DC020ED280F2A3040F08E32B9F436FC7E
:1008200081C1232D2064322E19C036FE06C08AE015
:10083000989E200D1124922E11C0EAE02E9E200DCC
:100840001124222EF32DF0623F2E08C08C3621F4A5
:10085000832D8068382E02C0883641F4F70193FD5D
:10086000859193FF81917F018111B3CF982F9F7D57
:100870009554933028F40C5F1F4F9FE399830DC06C
:10088000833631F0833771F0833509F059C021C0C8
:10089000F801808189830E5F1F4F88248394912CF7
:1008A000530113C02801F2E04F0E511CF801A08043
:1008B000B18036FE03C0692D70E002C06FEF7FEF9C
:1008C000C5010E94A7054C018201F32DFF773F2E41
:1008D00016C0280122E0420E511CF801A080B18010
:1008E00036FE03C0692D70E002C06FEF7FEFC501D7
:1008F0000E949C054C01F32DF0683F2E820133FCD1
:100900001BC0822D90E088169906B0F4B60180E2F3
:1009100090E00E94B2052A94F4CFF50137FC85914E
:1009200037FE81915F01B60190E00E94B20521106F
:100930002A9421E0821A91088114910471F7E8C089
:10094000843611F0893641F5F80137FE07C0608121
:100950007181828193810C5F1F4F08C0608171811A
:10096000072E000C880B990B0E5F1F4FF32DFF769F
:100970003F2E97FF09C090958095709561957F4FA8
:100980008F4F9F4FF0683F2E2AE030E0A3010E9476
:10099000EE05882E861845C0853731F4232D2F7E2D
:1009A000B22E2AE030E025C0932D997FB92E8F36E4
:1009B000C1F018F4883579F0B5C0803719F0883760
:1009C00021F0B0C0E92FE061BE2EB4FE0DC0FB2DBA
:1009D000F460BF2E09C034FE0AC0292F2660B22E53
:1009E00006C028E030E005C020E130E002C020E190
:1009F00032E0F801B7FE07C0608171818281938186
:100A00000C5F1F4F06C06081718180E090E00E5F37
:100A10001F4FA3010E94EE05882E8618FB2DFF773D
:100A20003F2E36FE0DC0232D2E7FA22E891458F4A2
:100A300034FE0BC032FC09C0832D8E7EA82E05C06B
:100A4000B82CA32C03C0B82C01C0B92CA4FE0FC035
:100A5000FE01E80DF11D8081803321F49A2D997EED
:100A6000A92E09C0A2FE06C0B394B39404C08A2D77
:100A7000867809F0B394A3FC11C0A0FE06C0B2149E
:100A800088F4280C922C9B180EC0B21460F4B601A6
:100A900080E290E00E94B205B394F7CFB21418F44C
:100AA0002B1802C0982C212CA4FE10C0B60180E3A4
:100AB00090E00E94B205A2FE17C0A1FC03C088E727
:100AC00090E002C088E590E0B6010CC08A2D8678DF
:100AD00059F0A1FE02C08BE201C080E2A7FC8DE2CA
:100AE000B60190E00E94B205891438F4B60180E3A3
:100AF00090E00E94B2059A94F7CF8A94F301E80D32
:100B0000F11D8081B60190E00E94B2058110F5CF01
:100B1000222009F442CEB60180E290E00E94B205A4
:100B20002A94F6CFF6018681978102C08FEF9FEF5E
:100B30002B96E2E10C946806FC0105906150704030
:100B40000110D8F7809590958E0F9F1F0895FC0196
:100B50006150704001900110D8F7809590958E0FEC
:100B60009F1F08950F931F93CF93DF93FB01238162
:100B700021FD03C08FEF9FEF2CC022FF16C04681DE
:100B80005781248135814217530744F4A081B181F4
:100B90009D012F5F3F4F318320838C9326813781C6
:100BA0002F5F3F4F3783268314C08B01EC01FB017D
:100BB0000084F185E02D0995892BE1F6D801169680
:100BC0008D919C911797019617969C938E931697EB
:100BD000CE01DF91CF911F910F910895FA01AA27BD
:100BE000283051F1203181F1E8946F936E7F6E5F70
:100BF0007F4F8F4F9F4FAF4FB1E03ED0B4E03CD01E
:100C0000670F781F891F9A1FA11D680F791F8A1F00
:100C1000911DA11D6A0F711D811D911DA11D20D067
:100C200009F468943F912AE0269F11243019305D21
:100C30003193DEF6CF010895462F4770405D419312
:100C4000B3E00FD0C9F7F6CF462F4F70405D4A335F
:100C500018F0495D31FD4052419302D0A9F7EACF27
:100C6000B4E0A6959795879577956795BA95C9F756
:100C700000976105710508959B01AC010A2E069449
:100C80005795479537952795BA95C9F7620F731F02
:100C9000841F951FA01D08952F923F924F925F923F
:100CA0006F927F928F929F92AF92BF92CF92DF927C
:100CB000EF92FF920F931F93CF93DF93CDB7DEB7E1
:100CC000CA1BDB0B0FB6F894DEBF0FBECDBF099475
:100CD0002A88398848885F846E847D848C849B84CC
:100CE000AA84B984C884DF80EE80FD800C811B81DA
:100CF000AA81B981CE0FD11D0FB6F894DEBF0FBE09
:0A0D0000CDBFED010895F894FFCF78
:100D0A0050726573737572653A20256C752050614F
:020D1A000A00CD
:00000001FF
