:100000000C9434000C9451000C9451000C94510049
:100010000C9451000C9451000C9451000C9451001C
:100020000C9451000C9451000C9451000C9451000C
:100030000C9451000C9451000C9451000C945100FC
:100040000C9451000C9451000C942F010C9451000D
:100050000C9451000C9451000C9451000C945100DC
:100060000C9451000C94510011241FBECFEFD8E026
:10007000DEBFCDBF11E0A0E0B1E0E6E9F5E102C0EE
:1000800005900D92A432B107D9F721E0A4E2B1E0C6
:1000900001C01D92AD33B207E1F70E94AA020C9491
:1000A000C90A0C94000080FF04C09BB190619BB909
:1000B00003C09BB19F7E9BB981FF04C09BB190623E
:1000C0009BB903C09BB19F7D9BB982FF04C09BB1CC
:1000D00090649BB903C09BB19F7B9BB983FF04C015
:1000E0009BB190689BB903C09BB19F779BB984FF7C
:1000F00004C095B1916095B903C095B19E7F95B943
:1001000085FF04C095B1926095B903C095B19D7FFC
:1001100095B986FF04C095B1946095B903C095B1B7
:100120009B7F95B9882324F485B1886085B90895AB
:1001300085B1877F85B908959BB19B7F9BB90E944C
:1001400053008BB188608BB98FE79EE30197F1F77D
:1001500000C000008BB1877F8BB98FE79EE30197CA
:10016000F1F700C00000089584B18F6084B915B81C
:100170008AB18C6F8AB91BB88BB1837F8BB92FEF93
:1001800089EF90E0215080409040E1F700C00000EE
:1001900080E30E949C008FE19EE40197F1F700C08C
:1001A000000080E30E949C008FE19EE40197F1F73C
:1001B00000C0000080E30E949C008FE39CE901974F
:1001C000F1F700C0000088E30E949C0088E00E94D4
:1001D0009C0081E00E949C0086E00E949C008CE0D4
:1001E0000E949C0008959BB194609BB90E945300AB
:1001F0008BB188608BB98FE79EE30197F1F700C060
:1002000000008BB1877F8BB98FE79EE30197F1F7F1
:1002100000C0000008950F931F93CF93DF938C01CC
:10022000C0E0D0E003C00E94F3002196F801EC0F7B
:10023000FD1F80818111F7CFDF91CF911F910F9129
:100240000895811105C080E8860F0E949C000895E2
:10025000813021F480EC860F0E949C0008951F924B
:100260000F920FB60F9211242F933F934F935F93EA
:100270006F937F938F939F93AF93BF93EF93FF936E
:10028000E6ECF0E0808180932A012FEF89E698E187
:10029000215080409040E1F700C00000808183370A
:1002A00061F4809129010E942705809128010E9414
:1002B0002705809125010E9427058091C600813382
:1002C00021F460E481E00E940F048091C600823333
:1002D00021F460E482E00E940F048091C600833321
:1002E00021F460E383E00E940F04FF91EF91BF913E
:1002F000AF919F918F917F916F915F914F913F91BE
:100300002F910F900FBE0F901F901895CF92DF92F4
:10031000EF92FF92CF93DF93682F70E080E090E040
:100320000E94430620E030E048EC52E40E94D106EF
:1003300020E030E04FE753E40E949B056B017C0115
:1003400060933001709331018093320190933301B7
:100350000E940D06C62FD72F20E030E048EC52E473
:10036000C701B6010E94D1060E940D06CB0164E6CA
:1003700070E00E944E079F938F93DF93CF9387E1A6
:1003800091E09F938F931F9285E08F9382E191E09C
:100390009F938F930E94D1078DB79EB70A960FB691
:1003A000F8949EBF0FBE8DBFDF91CF91FF90EF906D
:1003B000DF90CF9008958F929F92AF92BF92CF928D
:1003C000DF92EF92FF920F931F93CF93DF934B0136
:1003D0005C010E940D066B017C01EB01072E000CF5
:1003E000880B990B0E9445069B01AC01C501B40125
:1003F0000E942E0520E030E040E251E40E94D10648
:100400000E940D069B01772324F422273327261B05
:10041000370BC436D105F4F0CE0164E670E00E94DB
:100420004E07E0E0F1E0605D60830AE010E0CE019D
:10043000B8010E944E07382FCB01B8010E944E0729
:10044000805D8183305D32838EE28383205D2483EF
:10045000158221C0CA30D10594F0CE016AE070E067
:100460000E944E07E0E0F1E0605D6083805D818383
:100470008EE28283205D2383148215820CC0E0E02B
:10048000F1E060E36C0D60838EE28183205D228366
:10049000138214821582DF91CF911F910F91FF90EB
:1004A000EF90DF90CF90BF90AF909F908F90089586
:1004B0008CE80E94AD04809338018DE80E94AD0461
:1004C00080932F0190E0982F882720913801822B6C
:1004D00008954F925F926F927F92AF92BF92CF92A8
:1004E000DF92EF92FF920F931F93CF93DF93CDB7DD
:1004F000DEB729013A019B01AC01241935094609EF
:10050000570989899A89AB89BC89BC01CD016A19CF
:100510007B098C099D090E943E07A80197012419B7
:100520003509460957090E948407C601B501620FC3
:10053000731F841F951FDF91CF911F910F91FF9023
:10054000EF90DF90CF90BF90AF907F906F905F90D3
:100550004F900895F89484B1806184B985B1807E0C
:1005600085B90E94B4000E940C0548EC50E060E0A0
:1005700070E084E00E948B030E94FE0462E081E050
:100580000E940305789461E080E00E94210188E4E4
:100590000E94F30085E50E94F3008DE40E94F300C1
:1005A00085E20E94F30067E080E00E94210184E57B
:1005B0000E94F3008DE40E94F30080E50E94F300A6
:1005C0006CE080E00E94210189E40E94F30082E354
:1005D0000E94F30083E40E94F30085E20E94F3008E
:1005E00064E271E080E30E943204809329010E945A
:1005F000860161E081E00E94210182E191E00E9498
:100600000B018FE39CE90197F1F700C0000064E261
:1006100071E080E40E943204809328011F928F933E
:100620008FE191E09F938F931F9286E08F938CE0F0
:1006300091E09F938F930E94D10767E081E00E9431
:1006400021018CE091E00E940B010E9458029093DE
:10065000270180932601BC0180E090E01F921F9249
:100660001F922FEF2F93A12CB12C6501EE24EA9459
:10067000FE2C00E010E020E030E0A9010E946902B9
:100680000F900F900F900F9060933401709335018D
:1006900080933601909337016093250170E080E0EC
:1006A00090E00E94450620E030E04FE753E40E94CE
:1006B0009B0520E030E048EC52E40E94D1066093B4
:1006C0002B0170932C0180932D0190932E010E9499
:1006D000DB01A0E0B1E08C91E6E0F1E080831196CF
:1006E0008C911197818312968C9112978283139625
:1006F0008C9183836BE081E00E94210186E091E090
:100700000E940B018DB79EB708960FB6F8949EBF56
:100710000FBE8DBF65CFCF93C82F9A01AB0187B1B4
:100720008F7C87B960E074E284EF90E00E946207FA
:10073000CA01B90160517109810991092C2F30E07A
:10074000220F331F032E000C440B550B0E9462072F
:100750002093B800C43079F018F4C13031F023C0D0
:10076000C03191F0C034C9F01EC0E9EBF0E08081E7
:100770008C7F80831DC0E9EBF0E080818D7F8083DA
:1007800080818160808314C0E9EBF0E080818E7FFE
:1007900080838081826080830BC0E9EBF0E0808100
:1007A0008D6F808305C0E9EBF0E080818C7F8083D2
:1007B00084E08093BC00CF91089584EA8093BC00CC
:1007C0008091BC008823E4F78091B900887F88304D
:1007D00021F0803119F481E0089581E0089580933B
:1007E000BB0084E88093BC008091BC008823E4F7C0
:1007F0008091B900887F883131F0883231F08034BF
:1008000029F481E0089581E0089581E0089584E964
:100810008093BC008091BC0084FDFCCF0895CF93F1
:10082000C82F660F60933C010E94DD0380933A015C
:10083000813031F0ECEBF0E080818068808310C083
:1008400080913C010E94EF0380933A01813019F0BE
:100850000E94070405C08C2F0E94EF030E9407042A
:10086000CF910895CF93DF9394EA9093BC00909139
:10087000BC009923E4F79091B900987F9830B1F5C6
:1008800090E0880F991F81608093BB0084E880937B
:10089000BC008091BC008823E4F7EB018091B90093
:1008A000887F883421F40E94070481E020C08034CE
:1008B00021F00E94070481E01AC084E88093BC0004
:1008C0008091BC008823E4F78091B900887F883547
:1008D00031F0803521F00E94070481E008C080914A
:1008E000BB0088830E940704888101C081E0DF91FA
:1008F000CF910895CF93DF93C82FD62F0E94DD03A9
:1009000080933A01813031F0ECEBF0E08081806837
:10091000808320C082E70E94EF0380933A018130F8
:1009200019F00E94070416C08C2F0E94EF038093D9
:100930003A01813019F00E9407040CC08D2F0E94EB
:10094000EF0380933A01813019F00E94070402C03E
:100950000E940704DF91CF9108951F93CF93DF93F7
:10096000D82F0E94DD03C82F80933A01813039F0DF
:10097000ECEBF0E0808180688083C1E03AC082E7E0
:100980000E94EF03182F80933A01813019F00E94E2
:1009900007042FC08D2F0E94EF03C82F80933A01C8
:1009A000813021F00E940704C12F23C00E94DD0383
:1009B000D82F80933A01813031F0ECEBF0E0808168
:1009C0008068808316C083E70E94EF0380933A011A
:1009D000813021F00E940704CD2F0BC084E8809362
:1009E000BC008091BC008823E4F7C091BB000E944A
:1009F00007048C2FDF91CF911F91089563E080E869
:100A00000E947A04089520E1829FC0011124682B7E
:100A100081E80E947A0408958AB18E7F8AB98AB1EA
:100A200082608AB91092C000E1ECF0E0108280810F
:100A300088698083E2ECF0E01082808186608083A8
:100A400087E690E09093C5008093C400089590914C
:100A5000C00095FFFCCF8093C60008955058BB2777
:100A6000AA270E9446050C9497060E94890638F032
:100A70000E94900620F039F49F3F19F426F40C945C
:100A800086060EF4E095E7FB0C948006E92F0E94A1
:100A9000A80658F3BA17620773078407950720F072
:100AA00079F4A6F50C94CA060EF4E0950B2EBA2F35
:100AB000A02D0B01B90190010C01CA01A001112464
:100AC000FF27591B99F0593F50F4503E68F11A1610
:100AD000F040A22F232F342F4427585FF3CF4695A1
:100AE00037952795A795F0405395C9F77EF41F16C3
:100AF000BA0B620B730B840BBAF09150A1F0FF0F8D
:100B0000BB1F661F771F881FC2F70EC0BA0F621F78
:100B1000731F841F48F4879577956795B795F79568
:100B20009E3F08F0B0CF9395880F08F09927EE0FFD
:100B30009795879508950E94AF050C9497060E949B
:100B4000900658F00E94890640F029F45F3F29F092
:100B50000C94800651110C94CB060C9486060E94CE
:100B6000A80668F39923B1F3552391F3951B550B10
:100B7000BB27AA2762177307840738F09F5F5F4F70
:100B8000220F331F441FAA1FA9F335D00E2E3AF0AF
:100B9000E0E832D091505040E695001CCAF72BD0C7
:100BA000FE2F29D0660F771F881FBB1F2617370718
:100BB0004807AB07B0E809F0BB0B802DBF01FF274A
:100BC00093585F4F3AF09E3F510578F00C948006A1
:100BD0000C94CB065F3FE4F3983ED4F3869577956B
:100BE0006795B795F7959F5FC9F7880F911D969503
:100BF000879597F90895E1E0660F771F881FBB1F5F
:100C0000621773078407BA0720F0621B730B840B0B
:100C1000BA0BEE1F88F7E09508950E9414066894B9
:100C2000B1110C94CB0608950E94B00688F09F572E
:100C300098F0B92F9927B751B0F0E1F0660F771F00
:100C4000881F991F1AF0BA95C9F714C0B13091F0F6
:100C50000E94CA06B1E008950C94CA06672F782F47
:100C60008827B85F39F0B93FCCF3869577956795BB
:100C7000B395D9F73EF490958095709561957F4F27
:100C80008F4F9F4F0895E89409C097FB3EF49095CD
:100C90008095709561957F4F8F4F9F4F9923A9F055
:100CA000F92F96E9BB279395F695879577956795E4
:100CB000B795F111F8CFFAF4BB0F11F460FF1BC028
:100CC0006F5F7F4F8F4F9F4F16C0882311F096E9BB
:100CD00011C0772321F09EE8872F762F05C0662369
:100CE00071F096E8862F70E060E02AF09A95660F22
:100CF000771F881FDAF7880F9695879597F90895DB
:100D000097F99F6780E870E060E008959FEF80ECBE
:100D1000089500240A941616170618060906089561
:100D200000240A9412161306140605060895092EC7
:100D30000394000C11F4882352F0BB0F40F4BF2B36
:100D400011F460FF04C06F5F7F4F8F4F9F4F089576
:100D500057FD9058440F551F59F05F3F71F047956C
:100D6000880F97FB991F61F09F3F79F08795089551
:100D7000121613061406551FF2CF4695F1DF08C070
:100D8000161617061806991FF1CF8695710561058D
:100D900008940895E894BB2766277727CB0197F935
:100DA00008950E94E4060C9497060E94890638F084
:100DB0000E94900620F0952311F00C9480060C946C
:100DC000860611240C94CB060E94A80670F3959F0A
:100DD000C1F3950F50E0551F629FF001729FBB2732
:100DE000F00DB11D639FAA27F00DB11DAA1F649FCE
:100DF0006627B00DA11D661F829F2227B00DA11D81
:100E0000621F739FB00DA11D621F839FA00D611D06
:100E1000221F749F3327A00D611D231F849F600D27
:100E2000211D822F762F6A2F11249F5750409AF050
:100E3000F1F088234AF0EE0FFF1FBB1F661F771FDC
:100E4000881F91505040A9F79E3F510580F00C94A7
:100E500080060C94CB065F3FE4F3983ED4F386956E
:100E600077956795B795F795E7959F5FC1F7FE2B47
:100E7000880F911D9695879597F90895DB018F93BB
:100E80009F930E94A307BF91AF91A29F800D911DD8
:100E9000A39F900DB29F900D1124089597FB072EEC
:100EA00016F4009407D077FD09D00E94AE0707FC26
:100EB00005D03EF4909581959F4F0895709561956A
:100EC0007F4F0895A1E21A2EAA1BBB1BFD010DC086
:100ED000AA1FBB1FEE1FFF1FA217B307E407F507EA
:100EE00020F0A21BB30BE40BF50B661F771F881FC6
:100EF000991F1A9469F760957095809590959B015C
:100F0000AC01BD01CF010895052E97FB1EF400949E
:100F10000E949B0757FD07D00E94620707FC03D081
:100F20004EF40C949B0750954095309521953F4F7A
:100F30004F4F5F4F089590958095709561957F4FC5
:100F40008F4F9F4F08950E94C207A59F900DB49F99
:100F5000900DA49F800D911D11240895AA1BBB1B09
:100F600051E107C0AA1FBB1FA617B70710F0A61BA9
:100F7000B70B881F991F5A95A9F780959095BC01CA
:100F8000CD010895A29FB001B39FC001A39F700D32
:100F9000811D1124911DB29F700D811D1124911D81
:100FA0000895AEE0B0E0E7EDF7E00C94A00A0D89FB
:100FB0001E898F89988D26E02C831A83098397FFD9
:100FC00002C080E090E801979E838D83AE01455E6C
:100FD0005F4F698D7A8DCE0101960E9401084D8187
:100FE0005E8157FD0AC02F813885421753070CF4E4
:100FF0009A01F801E20FF31F10822E96E4E00C94A0
:10100000BC0AABE0B0E0E7E0F8E00C94920A6C01B7
:101010007B018A01FC0117821682838181FFCCC18A
:10102000CE0101963C01F6019381F70193FD859174
:1010300093FF81917F01882309F4BAC1853239F485
:1010400093FD859193FF81917F01853229F4B6014B
:1010500090E00E94F809E7CF912C212C312CFFE180
:10106000F315D8F08B3279F038F4803279F083328E
:10107000A1F4232D20611DC08D3261F0803369F40D
:10108000232D216016C0832D8260382EE32DE4606D
:101090003E2E2AC0F32DF8601DC037FC2DC020ED78
:1010A000280F2A3040F08E32B9F436FC81C1232D4E
:1010B0002064322E19C036FE06C08AE0989E200DAC
:1010C0001124922E11C0EAE02E9E200D1124222E12
:1010D000F32DF0623F2E08C08C3621F4832D8068FA
:1010E000382E02C0883641F4F70193FD859193FFB5
:1010F00081917F018111B3CF982F9F7D95549330BB
:1011000028F40C5F1F4F9FE399830DC0833631F0A5
:10111000833771F0833509F059C021C0F80180810F
:1011200089830E5F1F4F88248394912C530113C031
:101130002801F2E04F0E511CF801A080B18036FE6C
:1011400003C0692D70E002C06FEF7FEFC5010E9400
:10115000ED094C018201F32DFF773F2E16C02801C7
:1011600022E0420E511CF801A080B18036FE03C07F
:10117000692D70E002C06FEF7FEFC5010E94E209A8
:101180004C01F32DF0683F2E820133FC1BC0822DF1
:1011900090E088169906B0F4B60180E290E00E94D3
:1011A000F8092A94F4CFF50137FC859137FE819137
:1011B0005F01B60190E00E94F80921102A9421E015
:1011C000821A91088114910471F7E8C0843611F0F5
:1011D000893641F5F80137FE07C06081718182814F
:1011E00093810C5F1F4F08C060817181072E000C36
:1011F000880B990B0E5F1F4FF32DFF763F2E97FF45
:1012000009C090958095709561957F4F8F4F9F4F46
:10121000F0683F2E2AE030E0A3010E94340A882EB5
:10122000861845C0853731F4232D2F7EB22E2AE053
:1012300030E025C0932D997FB92E8F36C1F018F478
:10124000883579F0B5C0803719F0883721F0B0C003
:10125000E92FE061BE2EB4FE0DC0FB2DF460BF2E61
:1012600009C034FE0AC0292F2660B22E06C028E02D
:1012700030E005C020E130E002C020E132E0F801BA
:10128000B7FE07C060817181828193810C5F1F4F1F
:1012900006C06081718180E090E00E5F1F4FA30166
:1012A0000E94340A882E8618FB2DFF773F2E36FECB
:1012B0000DC0232D2E7FA22E891458F434FE0BC0AE
:1012C00032FC09C0832D8E7EA82E05C0B82CA32C1D
:1012D00003C0B82C01C0B92CA4FE0FC0FE01E80D5C
:1012E000F11D8081803321F49A2D997EA92E09C0A9
:1012F000A2FE06C0B394B39404C08A2D867809F088
:10130000B394A3FC11C0A0FE06C0B21488F4280C4C
:10131000922C9B180EC0B21460F4B60180E290E0EB
:101320000E94F809B394F7CFB21418F42B1802C036
:10133000982C212CA4FE10C0B60180E390E00E94FE
:10134000F809A2FE17C0A1FC03C088E790E002C024
:1013500088E590E0B6010CC08A2D867859F0A1FE90
:1013600002C08BE201C080E2A7FC8DE2B60190E0F2
:101370000E94F809891438F4B60180E390E00E94D5
:10138000F8099A94F7CF8A94F301E80DF11D808152
:10139000B60190E00E94F8098110F5CF222009F4EF
:1013A00042CEB60180E290E00E94F8092A94F6CF7E
:1013B000F6018681978102C08FEF9FEF2B96E2E1C5
:1013C0000C94AE0AFC010590615070400110D8F7F2
:1013D000809590958E0F9F1F0895FC01615070407D
:1013E00001900110D8F7809590958E0F9F1F08955A
:1013F0000F931F93CF93DF93FB01238121FD03C044
:101400008FEF9FEF2CC022FF16C0468157812481A9
:1014100035814217530744F4A081B1819D012F5FAC
:101420003F4F318320838C93268137812F5F3F4F3D
:101430003783268314C08B01EC01FB010084F18506
:10144000E02D0995892BE1F6D80116968D919C9196
:101450001797019617969C938E931697CE01DF915E
:10146000CF911F910F910895FA01AA27283051F1C9
:10147000203181F1E8946F936E7F6E5F7F4F8F4FC5
:101480009F4FAF4FB1E03ED0B4E03CD0670F781F24
:10149000891F9A1FA11D680F791F8A1F911DA11D09
:1014A0006A0F711D811D911DA11D20D009F4689442
:1014B0003F912AE0269F11243019305D3193DEF6EA
:1014C000CF010895462F4770405D4193B3E00FD0A0
:1014D000C9F7F6CF462F4F70405D4A3318F0495D8B
:1014E00031FD4052419302D0A9F7EACFB4E0A6956E
:1014F0009795879577956795BA95C9F70097610590
:10150000710508959B01AC010A2E069457954795E5
:1015100037952795BA95C9F7620F731F841F951FDA
:10152000A01D08952F923F924F925F926F927F92EB
:101530008F929F92AF92BF92CF92DF92EF92FF92E3
:101540000F931F93CF93DF93CDB7DEB7CA1BDB0B8F
:101550000FB6F894DEBF0FBECDBF09942A88398834
:1015600048885F846E847D848C849B84AA84B9843B
:10157000C884DF80EE80FD800C811B81AA81B98147
:10158000CE0FD11D0FB6F894DEBF0FBECDBFED015B
:061590000895F894FFCF5E
:1015960030000000000031332E3200003000000021
:1015A6000000300000000025642E2530326400253E
:0415B600644300008A
:00000001FF
