:100000000C9434000C9451000C9451000C94510049
:100010000C9451000C9451000C9451000C9451001C
:100020000C9451000C9451000C9451000C9451000C
:100030000C9451000C9451000C9451000C945100FC
:100040000C9451000C9451000C941E020C9451001D
:100050000C9451000C9451000C9451000C945100DC
:100060000C9451000C94510011241FBECFEFD8E026
:10007000DEBFCDBF11E0A0E0B1E0EAE8F0E102C0F0
:1000800005900D92A831B107D9F721E0A8E1B1E0C0
:1000900001C01D92A432B207E1F70E94C1020C9484
:1000A00043080C940000CF93C82F9A01AB0187B18D
:1000B0008F7C87B960E074E284EF90E00E941505C0
:1000C000CA01B90160517109810991092C2F30E0F1
:1000D000220F331F032E000C440B550B0E941505F5
:1000E0002093B800C43079F018F4C13031F023C047
:1000F000C03191F0C034C9F01EC0E9EBF0E080815E
:100100008C7F80831DC0E9EBF0E080818D7F808350
:1001100080818160808314C0E9EBF0E080818E7F74
:1001200080838081826080830BC0E9EBF0E0808176
:100130008D6F808305C0E9EBF0E080818C7F808348
:1001400084E08093BC00CF91089584EA8093BC0042
:100150008091BC008823E4F78091B900887F8830C3
:1001600021F0803119F481E0089581E008958093B1
:10017000BB0084E88093BC008091BC008823E4F736
:100180008091B900887F883131F0883231F0803435
:1001900029F481E0089581E0089581E0089584E9DB
:1001A0008093BC008091BC0084FDFCCF0895CF9368
:1001B000C82F660F60931D010E94A50080931B014C
:1001C000813031F0ECEBF0E080818068808310C0FA
:1001D00080911D010E94B70080931B01813019F0AE
:1001E0000E94CF0005C08C2F0E94B7000E94CF0054
:1001F000CF910895CF93DF9394EA9093BC009091B0
:10020000BC009923E4F79091B900987F9830B1F53C
:1002100090E0880F991F81608093BB0084E88093F1
:10022000BC008091BC008823E4F7EB018091B90009
:10023000887F883421F40E94CF0081E020C0803480
:1002400021F00E94CF0081E01AC084E88093BC00B6
:100250008091BC008823E4F78091B900887F8835BD
:1002600031F0803521F00E94CF0081E008C08091FC
:10027000BB0088830E94CF00888101C081E0DF91AC
:10028000CF91089580FF04C09BB190619BB903C0DA
:100290009BB19F7E9BB981FF04C09BB190629BB9CB
:1002A00003C09BB19F7D9BB982FF04C09BB190644A
:1002B0009BB903C09BB19F7B9BB983FF04C09BB1DB
:1002C00090689BB903C09BB19F779BB984FF04C022
:1002D00095B1916095B903C095B19E7F95B985FFA1
:1002E00004C095B1926095B903C095B19D7F95B951
:1002F00086FF04C095B1946095B903C095B19B7F0A
:1003000095B9882324F485B1886085B9089585B1AD
:10031000877F85B908959BB19B7F9BB90E9442015D
:100320008BB188608BB98FE79EE30197F1F700C02E
:1003300000008BB1877F8BB98FE79EE30197F1F7C0
:1003400000C00000089584B18F6084B915B88AB1E7
:100350008C6F8AB91BB88BB1837F8BB92FEF89EF74
:1003600090E0215080409040E1F700C0000080E321
:100370000E948B018FE19EE40197F1F700C000001D
:1003800080E30E948B018FE19EE40197F1F700C0AA
:10039000000080E30E948B018FE39CE90197F1F755
:1003A00000C0000088E30E948B0188E00E948B015E
:1003B00081E00E948B0186E00E948B018CE00E940C
:1003C0008B0108959BB194609BB90E9442018BB14F
:1003D00088608BB98FE79EE30197F1F700C00000BA
:1003E0008BB1877F8BB98FE79EE30197F1F700C050
:1003F000000008950F931F93CF93DF938C01C0E00B
:10040000D0E003C00E94E2012196F801EC0FFD1F2D
:1004100080818111F7CFDF91CF911F910F910895C6
:10042000811105C080E8860F0E948B0108958130FC
:1004300021F480EC860F0E948B0108951F920F9289
:100440000FB60F9211242F933F934F935F936F93A7
:100450007F938F939F93AF93BF93EF93FF93E6ECBC
:10046000F0E0808180931E018081823621F48091AA
:100470001A010E9457038091C600813621F48091B1
:1004800019010E9457038091C600813321F460E472
:1004900081E00E94D7008091C600823321F460E49D
:1004A00082E00E94D7008091C600833321F460E38C
:1004B00083E00E94D700FF91EF91BF91AF919F9190
:1004C0008F917F916F915F914F913F912F910F90FD
:1004D0000FBE0F901F901895CF92DF92EF92FF9270
:1004E000CF93DF93682F70E080E090E00E940604D5
:1004F00020E030E048EC52E40E94940420E030E038
:100500004FE753E40E945E036B017C0160931F017F
:100510007093200180932101909322010E94D003C7
:10052000C62FD72F20E030E048EC52E4C701B601D7
:100530000E9494040E94D003CB0164E670E00E9404
:1005400001059F938F93DF93CF938BE091E09F936F
:100550008F931F9285E08F9386E091E09F938F9316
:100560000E944B058DB79EB70A960FB6F8949EBFB2
:100570000FBE8DBFDF91CF91FF90EF90DF90CF90B6
:100580000895F89484B1806184B985B1807E85B97D
:100590000E94A3010E943C0348EC50E060E070E040
:1005A00084E00E945300789461E080E00E94100291
:1005B00088E40E94E20185E50E94E2018DE40E9448
:1005C000E20185E20E94E20167E080E00E94100201
:1005D00084E50E94E2018DE40E94E20180E50E9430
:1005E000E2016CE080E00E94100289E40E94E201D6
:1005F00082E30E94E20183E40E94E20168E171E08B
:1006000080E30E94FA0080931A010E946C0261E06C
:1006100081E00E94100286E091E00E94FA018FE3DF
:100620009CE90197F1F700C0000068E171E080E407
:100630000E94FA00809319011F928F9383E191E049
:100640009F938F931F9286E08F9380E091E09F931A
:100650008F930E944B0567E081E00E94100280E0CA
:1006600091E00E94FA018DB79EB708960FB6F894F4
:100670009EBF0FBE8DBFC2CF8AB18E7F8AB98AB1AD
:1006800082608AB91092C000E1ECF0E010828081B3
:1006900088698083E2ECF0E010828081866080834C
:1006A00087E690E09093C5008093C40008959091F0
:1006B000C00095FFFCCF8093C60008950E9472038E
:1006C0000C945A040E94530458F00E944C0440F0C9
:1006D00029F45F3F29F00C94430451110C948E04CB
:1006E0000C9449040E946B0468F39923B1F35523D9
:1006F00091F3951B550BBB27AA2762177307840735
:1007000038F09F5F5F4F220F331F441FAA1FA9F3CA
:1007100035D00E2E3AF0E0E832D091505040E695B8
:10072000001CCAF72BD0FE2F29D0660F771F881F19
:10073000BB1F261737074807AB07B0E809F0BB0B0C
:10074000802DBF01FF2793585F4F3AF09E3F510520
:1007500078F00C9443040C948E045F3FE4F3983ECD
:10076000D4F3869577956795B795F7959F5FC9F709
:10077000880F911D9695879597F90895E1E0660F8A
:10078000771F881FBB1F621773078407BA0720F003
:10079000621B730B840BBA0BEE1F88F7E09508956C
:1007A0000E94D7036894B1110C948E0408950E949E
:1007B000730488F09F5798F0B92F9927B751B0F07C
:1007C000E1F0660F771F881F991F1AF0BA95C9F7D5
:1007D00014C0B13091F00E948D04B1E008950C94E2
:1007E0008D04672F782F8827B85F39F0B93FCCF395
:1007F000869577956795B395D9F73EF49095809552
:10080000709561957F4F8F4F9F4F0895E89409C071
:1008100097FB3EF490958095709561957F4F8F4F33
:100820009F4F9923A9F0F92F96E9BB279395F69549
:10083000879577956795B795F111F8CFFAF4BB0FC7
:1008400011F460FF1BC06F5F7F4F8F4F9F4F16C02B
:10085000882311F096E911C0772321F09EE8872FB5
:10086000762F05C0662371F096E8862F70E060E071
:100870002AF09A95660F771F881FDAF7880F9695EA
:10088000879597F9089597F99F6780E870E060E091
:1008900008959FEF80EC089500240A941616170619
:1008A00018060906089500240A9412161306140661
:1008B00005060895092E0394000C11F4882352F0C4
:1008C000BB0F40F4BF2B11F460FF04C06F5F7F4F7C
:1008D0008F4F9F4F089557FD9058440F551F59F063
:1008E0005F3F71F04795880F97FB991F61F09F3F1D
:1008F00079F087950895121613061406551FF2CF46
:100900004695F1DF08C0161617061806991FF1CF95
:1009100086957105610508940895E894BB276627BC
:100920007727CB0197F908950E94A7040C945A04E5
:100930000E944C0438F00E94530420F0952311F0DB
:100940000C9443040C94490411240C948E040E94CA
:100950006B0470F3959FC1F3950F50E0551F629F94
:10096000F001729FBB27F00DB11D639FAA27F00D08
:10097000B11DAA1F649F6627B00DA11D661F829F2F
:100980002227B00DA11D621F739FB00DA11D621F14
:10099000839FA00D611D221F749F3327A00D611D31
:1009A000231F849F600D211D822F762F6A2F112413
:1009B0009F5750409AF0F1F088234AF0EE0FFF1F46
:1009C000BB1F661F771F881F91505040A9F79E3F9D
:1009D000510580F00C9443040C948E045F3FE4F3C3
:1009E000983ED4F3869577956795B795F795E795F3
:1009F0009F5FC1F7FE2B880F911D9695879597F9FC
:100A0000089597FB072E16F4009407D077FD09D0C0
:100A10000E94370507FC05D03EF4909581959F4FC5
:100A20000895709561957F4F0895A1E21A2EAA1B33
:100A3000BB1BFD010DC0AA1FBB1FEE1FFF1FA2178E
:100A4000B307E407F50720F0A21BB30BE40BF50B8B
:100A5000661F771F881F991F1A9469F76095709514
:100A6000809590959B01AC01BD01CF010895AA1B13
:100A7000BB1B51E107C0AA1FBB1FA617B70710F089
:100A8000A61BB70B881F991F5A95A9F780959095BB
:100A9000BC01CD010895AEE0B0E0E1E5F5E00C94D5
:100AA0001A080D891E898F89988D26E02C831A8358
:100AB000098397FF02C080E090E801979E838D83B1
:100AC000AE01455E5F4F698D7A8DCE0101960E9421
:100AD0007B054D815E8157FD0AC02F813885421705
:100AE00053070CF49A01F801E20FF31F10822E96BF
:100AF000E4E00C943608ABE0B0E0E1E8F5E00C94FB
:100B00000C086C017B018A01FC011782168283812B
:100B100081FFCCC1CE0101963C01F6019381F70122
:100B200093FD859193FF81917F01882309F4BAC1D8
:100B3000853239F493FD859193FF81917F01853250
:100B400029F4B60190E00E947207E7CF912C212C86
:100B5000312CFFE1F315D8F08B3279F038F4803284
:100B600079F08332A1F4232D20611DC08D3261F014
:100B7000803369F4232D216016C0832D8260382EC6
:100B8000E32DE4603E2E2AC0F32DF8601DC037FC33
:100B90002DC020ED280F2A3040F08E32B9F436FCFB
:100BA00081C1232D2064322E19C036FE06C08AE092
:100BB000989E200D1124922E11C0EAE02E9E200D49
:100BC0001124222EF32DF0623F2E08C08C3621F422
:100BD000832D8068382E02C0883641F4F70193FDDA
:100BE000859193FF81917F018111B3CF982F9F7DD4
:100BF0009554933028F40C5F1F4F9FE399830DC0E9
:100C0000833631F0833771F0833509F059C021C044
:100C1000F801808189830E5F1F4F88248394912C73
:100C2000530113C02801F2E04F0E511CF801A080BF
:100C3000B18036FE03C0692D70E002C06FEF7FEF18
:100C4000C5010E9467074C018201F32DFF773F2EFB
:100C500016C0280122E0420E511CF801A080B1808C
:100C600036FE03C0692D70E002C06FEF7FEFC50153
:100C70000E945C074C01F32DF0683F2E820133FC8B
:100C80001BC0822D90E088169906B0F4B60180E270
:100C900090E00E9472072A94F4CFF50137FC859109
:100CA00037FE81915F01B60190E00E94720721102A
:100CB0002A9421E0821A91088114910471F7E8C006
:100CC000843611F0893641F5F80137FE07C060819E
:100CD0007181828193810C5F1F4F08C06081718197
:100CE000072E000C880B990B0E5F1F4FF32DFF761C
:100CF0003F2E97FF09C090958095709561957F4F25
:100D00008F4F9F4FF0683F2E2AE030E0A3010E94F2
:100D1000AE07882E861845C0853731F4232D2F7EE7
:100D2000B22E2AE030E025C0932D997FB92E8F3660
:100D3000C1F018F4883579F0B5C0803719F08837DC
:100D400021F0B0C0E92FE061BE2EB4FE0DC0FB2D36
:100D5000F460BF2E09C034FE0AC0292F2660B22ECF
:100D600006C028E030E005C020E130E002C020E10C
:100D700032E0F801B7FE07C0608171818281938102
:100D80000C5F1F4F06C06081718180E090E00E5FB4
:100D90001F4FA3010E94AE07882E8618FB2DFF77F8
:100DA0003F2E36FE0DC0232D2E7FA22E891458F41F
:100DB00034FE0BC032FC09C0832D8E7EA82E05C0E8
:100DC000B82CA32C03C0B82C01C0B92CA4FE0FC0B2
:100DD000FE01E80DF11D8081803321F49A2D997E6A
:100DE000A92E09C0A2FE06C0B394B39404C08A2DF4
:100DF000867809F0B394A3FC11C0A0FE06C0B2141B
:100E000088F4280C922C9B180EC0B21460F4B60122
:100E100080E290E00E947207B394F7CFB21418F406
:100E20002B1802C0982C212CA4FE10C0B60180E320
:100E300090E00E947207A2FE17C0A1FC03C088E7E1
:100E400090E002C088E590E0B6010CC08A2D86785B
:100E500059F0A1FE02C08BE201C080E2A7FC8DE246
:100E6000B60190E00E947207891438F4B60180E35D
:100E700090E00E9472079A94F7CF8A94F301E80DEC
:100E8000F11D8081B60190E00E9472078110F5CFBC
:100E9000222009F442CEB60180E290E00E9472075F
:100EA0002A94F6CFF6018681978102C08FEF9FEFDB
:100EB0002B96E2E10C942808FC01059061507040EB
:100EC0000110D8F7809590958E0F9F1F0895FC0113
:100ED0006150704001900110D8F7809590958E0F69
:100EE0009F1F08950F931F93CF93DF93FB012381DF
:100EF00021FD03C08FEF9FEF2CC022FF16C046815B
:100F00005781248135814217530744F4A081B18170
:100F10009D012F5F3F4F318320838C932681378142
:100F20002F5F3F4F3783268314C08B01EC01FB01F9
:100F30000084F185E02D0995892BE1F6D8011696FC
:100F40008D919C911797019617969C938E93169767
:100F5000CE01DF91CF911F910F910895FA01AA2739
:100F6000283051F1203181F1E8946F936E7F6E5FEC
:100F70007F4F8F4F9F4FAF4FB1E03ED0B4E03CD09A
:100F8000670F781F891F9A1FA11D680F791F8A1F7D
:100F9000911DA11D6A0F711D811D911DA11D20D0E4
:100FA00009F468943F912AE0269F11243019305D9E
:100FB0003193DEF6CF010895462F4770405D41938F
:100FC000B3E00FD0C9F7F6CF462F4F70405D4A33DC
:100FD00018F0495D31FD4052419302D0A9F7EACFA4
:100FE000B4E0A6959795879577956795BA95C9F7D3
:100FF00000976105710508959B01AC010A2E0694C6
:101000005795479537952795BA95C9F7620F731F7E
:10101000841F951FA01D08952F923F924F925F92BB
:101020006F927F928F929F92AF92BF92CF92DF92F8
:10103000EF92FF920F931F93CF93DF93CDB7DEB75D
:10104000CA1BDB0B0FB6F894DEBF0FBECDBF0994F1
:101050002A88398848885F846E847D848C849B8448
:10106000AA84B984C884DF80EE80FD800C811B8156
:10107000AA81B981CE0FD11D0FB6F894DEBF0FBE85
:0A108000CDBFED010895F894FFCFF5
:10108A00300000000000300000000025642E2530EA
:08109A003264002564430000EC
:00000001FF
