S022000050726F62616E646F436F6D756E69636163696F6E436F6E4553502E73726563ED
S11300000C9434000C9446000C9446000C94460066
S11300100C9446000C9446000C9446000C94460044
S11300200C9446000C9446000C9446000C94460034
S11300300C9446000C9446000C9446000C94460024
S11300400C9446000C9446000C945A000C94460000
S11300500C9446000C9446000C9446000C94460004
S11300600C9446000C94460011241FBECFEFD8E038
S1130070DEBFCDBF21E0A0E0B1E001C01D92A13000
S1130080B207E1F70E9448000C9494000C9400001D
S1130090F89484B1806284B915B80E947900789488
S11300A02FEF8BE792E9215080409040E1F700C0A8
S11300B00000F6CF1F920F920FB60F9211248F9368
S11300C0EF93FF93E6ECF0E0808180930001808160
S11300D0813621F485B1806285B903C085B1807C05
S11300E085B9FF91EF918F910F900FBE0F901F90E4
S11300F018958AB18E7F8AB98AB182608AB91092C2
S1130100C000E1ECF0E01082808188698083E2EC39
S1130110F0E0108280818660808387E690E090938F
S10F0120C5008093C4000895F894FFCF3C
S9030000FC
