:100000000C9434000C9446000C9446000C9446006A
:100010000C9446000C9446000C9446000C94460048
:100020000C9446000C9446000C9446000C94460038
:100030000C9446000C9446000C9446000C94460028
:100040000C9446000C9446000C945D000C94460001
:100050000C9446000C9446000C9446000C94460008
:100060000C9446000C94460011241FBECFEFD8E03C
:10007000DEBFCDBF21E0A0E0B1E001C01D92A13004
:10008000B207E1F70E9448000C9497000C9400001E
:10009000F89484B1886084B984B1886084B915B853
:1000A0000E947C0078942FEF8BE792E921508040EA
:1000B0009040E1F700C00000F6CF1F920F920FB6FC
:1000C0000F9211248F93EF93FF93E6ECF0E0808181
:1000D000809300018081813321F485B1886085B9E6
:1000E00003C083B1806183B9FF91EF918F910F902D
:1000F0000FBE0F901F9018958AB18E7F8AB98AB172
:1001000082608AB91092C000E1ECF0E01082808138
:1001100088698083E2ECF0E01082808186608083D1
:1001200087E690E09093C5008093C4000895F8940A
:02013000FFCFFF
:00000001FF
