S015000053656E736F7248756D656461642E73726563DD
S11300000C9434000C9451000C9451000C94510045
S11300100C9451000C9451000C9451000C94510018
S11300200C9451000C9451000C9451000C94510008
S11300300C9451000C9451000C9451000C945100F8
S11300400C9451000C9451000C94F1000C94510048
S11300500C9451000C94DC000C9451000C9451004D
S11300600C9451000C94510011241FBECFEFD8E022
S1130070DEBFCDBF11E0A0E0B1E0E0E5FBE002C0EF
S113008005900D92A032B107D9F721E0A0E2B1E0CA
S113009001C01D92A632B207E1F70E94BB000C9486
S11300A0A6050C940000ECE7F0E0108280838081C8
S11300B08064808380818F77808380818062808365
S11300C0EAE7F0E0808187608083808188608083B4
S11300D08081806880830895CF92DF92EF92FF92AF
S11300E0CF93DF93682F70E080E090E00E948D0151
S11300F021EA30EA40EA5CE30E94F1016B017C01F1
S11301006093200170932101809322019093230135
S11301100E945501C62FD72F20E030E04AE754E46F
S1130120C701B6010E94F1010E945501CB0168EE9E
S113013073E00E9486029F938F93DF93CF9385E0B1
S113014091E09F938F931F9285E08F9380E091E0DD
S11301509F938F930E94AE028DB79EB70A960FB6F7
S1130160F8949EBF0FBE8DBFDF91CF91FF90EF90AB
S1130170DF90CF900895109225010E942201789477
S113018080E00E945300EAE7F0E08081806480838D
S113019080917A0086FDFCCF8091790080932501BF
S11301A00E946C002FEF89EF90E021508040904036
S11301B0E1F700C00000E4CF1F920F920FB60F9238
S11301C011248F93EF93FF93EAE7F0E0808180613D
S11301D08083FF91EF918F910F900FBE0F901F902E
S11301E018951F920F920FB60F9211242F933F93DD
S11301F04F935F936F937F938F939F93AF93BF932B
S1130200EF93FF938AE00E943D018EE091E00E940B
S1130210440180E091E00E9444018091C6008093F3
S11302202401FF91EF91BF91AF919F918F917F91A5
S11302306F915F914F913F912F910F900FBE0F904F
S11302401F9018958AB18E7F8AB98AB182608AB963
S11302501092C000E1ECF0E0108280818869808314
S1130260E2ECF0E0108280818660808387E690E093
S11302709093C5008093C40008959091C00095FFA9
S1130280FCCF8093C6000895AC0120E007C0909194
S1130290C00095FFFCCF3093C6002F5FFA01E20F38
S11302A0F11D30813111F3CF08950E945C016894EF
S11302B0B1110C94EB0108950E94D00188F09F576E
S11302C098F0B92F9927B751B0F0E1F0660F771F76
S11302D0881F991F1AF0BA95C9F714C0B13091F06C
S11302E00E94EA01B1E008950C94EA01672F782F87
S11302F08827B85F39F0B93FCCF386957795679531
S1130300B395D9F73EF490958095709561957F4F9C
S11303108F4F9F4F0895E89409C097FB3EF4909542
S11303208095709561957F4F8F4F9F4F9923A9F0CA
S1130330F92F96E9BB279395F69587957795679559
S1130340B795F111F8CFFAF4BB0F11F460FF1BC09D
S11303506F5F7F4F8F4F9F4F16C0882311F096E930
S113036011C0772321F09EE8872F762F05C06623DE
S113037071F096E8862F70E060E02AF09A95660F97
S1130380771F881FDAF7880F9695879597F9089550
S113039057FD9058440F551F59F05F3F71F0479532
S11303A0880F97FB991F61F09F3F79F08795089517
S11303B0121613061406551FF2CF4695F1DF08C036
S11303C0161617061806991FF1CF86957105610553
S11303D008940895E894BB2766277727CB0197F9FB
S11303E008950E9404020C9475020E94670238F07A
S11303F00E946E0220F0952311F00C945E020C947E
S1130400640211240C94EB010E94C80170F3959FBF
S1130410C1F3950F50E0551F629FF001729FBB27F7
S1130420F00DB11D639FAA27F00DB11DAA1F649F93
S11304306627B00DA11D661F829F2227B00DA11D46
S1130440621F739FB00DA11D621F839FA00D611DCC
S1130450221F749F3327A00D611D231F849F600DED
S1130460211D822F762F6A2F11249F5750409AF016
S1130470F1F088234AF0EE0FFF1FBB1F661F771FA2
S1130480881F91505040A9F79E3F510580F00C946D
S11304905E020C94EB015F3FE4F3983ED4F386953F
S11304A077956795B795F795E7959F5FC1F7FE2B0D
S11304B0880F911D9695879597F9089597F99F67E9
S11304C080E870E060E008959FEF80EC08950024D8
S11304D00A941616170618060906089500240A94A5
S11304E012161306140605060895092E0394000C2B
S11304F011F4882352F0BB0F40F4BF2B11F460FFBA
S113050004C06F5F7F4F8F4F9F4F089597FB072E57
S113051016F4009407D077FD09D00E949A0207FCD4
S113052005D03EF4909581959F4F089570956195FF
S11305307F4F0895AA1BBB1B51E107C0AA1FBB1F15
S1130540A617B70710F0A61BB70B881F991F5A955B
S1130550A9F780959095BC01CD010895AEE0B0E077
S1130560E4EBF2E00C947D050D891E898F89988D4A
S113057026E02C831A83098397FF02C080E090E869
S113058001979E838D83AE01455E5F4F698D7A8DA1
S1130590CE0101960E94DE024D815E8157FD0AC0A4
S11305A02F813885421753070CF49A01F801E20FA2
S11305B0F31F10822E96E4E00C949905ABE0B0E0B2
S11305C0E4EEF2E00C946F056C017B018A01FC01FE
S11305D017821682838181FFCCC1CE0101963C0132
S11305E0F6019381F70193FD859193FF81917F013A
S11305F0882309F4BAC1853239F493FD859193FFB8
S113060081917F01853229F4B60190E00E94D504DE
S1130610E7CF912C212C312CFFE1F315D8F08B324C
S113062079F038F4803279F08332A1F4232D2061FB
S11306301DC08D3261F0803369F4232D216016C012
S1130640832D8260382EE32DE4603E2E2AC0F32DE4
S1130650F8601DC037FC2DC020ED280F2A3040F073
S11306608E32B9F436FC81C1232D2064322E19C098
S113067036FE06C08AE0989E200D1124922E11C0E9
S1130680EAE02E9E200D1124222EF32DF0623F2E3F
S113069008C08C3621F4832D8068382E02C0883639
S11306A041F4F70193FD859193FF81917F018111BD
S11306B0B3CF982F9F7D9554933028F40C5F1F4F30
S11306C09FE399830DC0833631F0833771F083350E
S11306D009F059C021C0F801808189830E5F1F4F42
S11306E088248394912C530113C02801F2E04F0E07
S11306F0511CF801A080B18036FE03C0692D70E062
S113070002C06FEF7FEFC5010E94CA044C01820151
S1130710F32DFF773F2E16C0280122E0420E511C14
S1130720F801A080B18036FE03C0692D70E002C0DC
S11307306FEF7FEFC5010E94BF044C01F32DF068F9
S11307403F2E820133FC1BC0822D90E0881699064F
S1130750B0F4B60180E290E00E94D5042A94F4CF6C
S1130760F50137FC859137FE81915F01B60190E078
S11307700E94D50421102A9421E0821A9108811440
S1130780910471F7E8C0843611F0893641F5F80117
S113079037FE07C060817181828193810C5F1F4F96
S11307A008C060817181072E000C880B990B0E5FC5
S11307B01F4FF32DFF763F2E97FF09C0909580952C
S11307C0709561957F4F8F4F9F4FF0683F2E2AE0C1
S11307D030E0A3010E941105882E861845C0853794
S11307E031F4232D2F7EB22E2AE030E025C0932D44
S11307F0997FB92E8F36C1F018F4883579F0B5C0D9
S1130800803719F0883721F0B0C0E92FE061BE2E9F
S1130810B4FE0DC0FB2DF460BF2E09C034FE0AC027
S1130820292F2660B22E06C028E030E005C020E162
S113083030E002C020E132E0F801B7FE07C0608179
S11308407181828193810C5F1F4F06C06081718129
S113085080E090E00E5F1F4FA3010E941105882ED7
S11308608618FB2DFF773F2E36FE0DC0232D2E7FDD
S1130870A22E891458F434FE0BC032FC09C0832D17
S11308808E7EA82E05C0B82CA32C03C0B82C01C0A2
S1130890B92CA4FE0FC0FE01E80DF11D8081803348
S11308A021F49A2D997EA92E09C0A2FE06C0B39404
S11308B0B39404C08A2D867809F0B394A3FC11C0C4
S11308C0A0FE06C0B21488F4280C922C9B180EC00B
S11308D0B21460F4B60180E290E00E94D504B394AF
S11308E0F7CFB21418F42B1802C0982C212CA4FEB4
S11308F010C0B60180E390E00E94D504A2FE17C0A8
S1130900A1FC03C088E790E002C088E590E0B6014E
S11309100CC08A2D867859F0A1FE02C08BE201C07A
S113092080E2A7FC8DE2B60190E00E94D504891410
S113093038F4B60180E390E00E94D5049A94F7CF8E
S11309408A94F301E80DF11D8081B60190E00E94C4
S1130950D5048110F5CF222009F442CEB60180E2FD
S113096090E00E94D5042A94F6CFF60186819781FF
S113097002C08FEF9FEF2B96E2E10C948B05FC01F4
S11309800590615070400110D8F7809590958E0FB6
S11309909F1F0895FC016150704001900110D8F729
S11309A0809590958E0F9F1F08950F931F93CF935B
S11309B0DF93FB01238121FD03C08FEF9FEF2CC048
S11309C022FF16C04681578124813581421753077F
S11309D044F4A081B1819D012F5F3F4F3183208377
S11309E08C93268137812F5F3F4F3783268314C032
S11309F08B01EC01FB010084F185E02D0995892B25
S1130A00E1F6D80116968D919C9117970196179649
S1130A109C938E931697CE01DF91CF911F910F91E6
S1130A200895FA01AA27283051F1203181F1E89480
S1130A306F936E7F6E5F7F4F8F4F9F4FAF4FB1E0CD
S1130A403ED0B4E03CD0670F781F891F9A1FA11DC8
S1130A50680F791F8A1F911DA11D6A0F711D811DC9
S1130A60911DA11D20D009F468943F912AE0269F8E
S1130A7011243019305D3193DEF6CF010895462FED
S1130A804770405D4193B3E00FD0C9F7F6CF462FCE
S1130A904F70405D4A3318F0495D31FD4052419337
S1130AA002D0A9F7EACFB4E0A695979587957795F4
S1130AB06795BA95C9F700976105710508959B017B
S1130AC0AC010A2E06945795479537952795BA9504
S1130AD0C9F7620F731F841F951FA01D08952F92DD
S1130AE03F924F925F926F927F928F929F92AF92BA
S1130AF0BF92CF92DF92EF92FF920F931F93CF9307
S1130B00DF93CDB7DEB7CA1BDB0B0FB6F894DEBF9D
S1130B100FBECDBF09942A88398848885F846E84C3
S1130B207D848C849B84AA84B984C884DF80EE800D
S1130B30FD800C811B81AA81B981CE0FD11D0FB616
S1130B40F894DEBF0FBECDBFED010895F894FFCF3A
S1130B50300000000025642E25322E3264005661D8
S1130B606C6F722064652068756D656461643A0019
S9030000FC
