S015000053656E736F7248756D656461642E73726563DD
S11300000C9434000C9451000C9451000C94510045
S11300100C9451000C9451000C9451000C94510018
S11300200C9451000C9451000C9451000C94510008
S11300300C9451000C9451000C9451000C945100F8
S11300400C9451000C9451000C9449010C945100EF
S11300500C9451000C9434010C9451000C945100F4
S11300600C947A010C94510011241FBECFEFD8E0F8
S1130070DEBFCDBF11E0A0E0B1E0EAE1FDE002C0E7
S113008005900D92A032B107D9F721E0A0E2B1E0CA
S113009001C01D92A732B207E1F70E94E6000C945A
S11300A08B060C940000ECE7F0E0108280838081E2
S11300B08064808380818F77808380818062808365
S11300C0EAE7F0E0808187608083808188608083B4
S11300D0808180688083089587B1866087B9089598
S11300E097B19F7C97B9880F81608093BA0085E4AB
S11300F08093BC0008958FEF90E00E94050208955C
S113010080E090E00E94050208958FEF90E00E9445
S113011005022FEF83ED90E3215080409040E1F7FA
S113012000C0000080E090E00E9405020895CF9294
S1130130DF92EF92FF92CF93DF93682F70E080E01D
S113014090E00E94720221EA30EA40EA5CE30E94F5
S1130150D6026B017C01609321017093220180938C
S11301602301909324010E943A02C62FD72F20E046
S113017030E04AE754E4C701B6010E94D6020E9467
S11301803A02CB0168EE73E00E946B039F938F9356
S1130190DF93CF9385E091E09F938F931F9285E047
S11301A08F9380E091E09F938F930E9493038DB788
S11301B09EB70A960FB6F8949EBF0FBE8DBFDF910F
S11301C0CF91FF90EF90DF90CF900895F894109224
S11301D02601109220010E94070280E30E94700011
S11301E078940E946C0040E054E060E070E080E0AD
S11301F090E00E94C70180E090E00E94050280E048
S11302000E945300EAE7F0E080818064808380915B
S11302107A0086FDFCCF8091790080958093260139
S11302200E949700809126018E3110F40E947B0079
S113023080912601813510F00E9480008091200178
S1130240833041F4809126018E3110F00E948500A4
S1130250109220012FEF89EF90E0215080409040D0
S1130260E1F700C00000CBCF1F920F920FB60F92A0
S113027011248F93EF93FF93EAE7F0E0808180618C
S11302808083FF91EF918F910F900FBE0F901F907D
S113029018951F920F920FB60F9211242F933F932C
S11302A04F935F936F937F938F939F93AF93BF937A
S11302B0EF93FF938AE00E9422028EE091E00E9475
S11302C0290280E091E00E9429028091C600809377
S11302D02501FF91EF91BF91AF919F918F917F91F4
S11302E06F915F914F913F912F910F900FBE0F909F
S11302F01F9018951F920F920FB60F9211248F938F
S1130300EF93FF938091B9008C7F8039C9F038F462
S1130310803781F08038A1F0803661F50BC0883BCE
S1130320C9F018F4883AB1F025C0803CE9F0883C63
S1130330D9F020C0ECEBF0E08081806880831FC09E
S11303408091BB0080932001ECEBF0E08081806819
S1130350808315C0809126018093BB00ECEBF0E014
S11303608081856C80830BC0ECEBF0E08081846C31
S1130370808305C0ECEBF0E0808180698083FF918D
S1130380EF918F910F900FBE0F901F9018952AB187
S113039020642AB914BC15BC892B21F484B5806867
S11303A084BD03C084B5806C84BD672B21F484B5FF
S11303B0836084BD03C084B5816084BD403451052D
S11303C0C1F03CF44115510561F04830510569F024
S11303D00895411581E0580781F04115544089F092
S11303E0089585B5816085BD089585B5826085BD14
S11303F0089585B5836085BD089585B5846085BD00
S1130400089585B5856085BD089587BD08958AB131
S11304108E7F8AB98AB182608AB91092C000E1ECF9
S1130420F0E01082808188698083E2ECF0E0108241
S113043080818660808387E690E09093C5008093F6
S1130440C40008959091C00095FFFCCF8093C6002E
S11304500895AC0120E007C09091C00095FFFCCF47
S11304603093C6002F5FFA01E20FF11D3081311184
S1130470F3CF08950E9441026894B1110C94D00204
S113048008950E94B50288F09F5798F0B92F9927D4
S1130490B751B0F0E1F0660F771F881F991F1AF06B
S11304A0BA95C9F714C0B13091F00E94CF02B1E0FF
S11304B008950C94CF02672F782F8827B85F39F0FE
S11304C0B93FCCF3869577956795B395D9F73EF404
S11304D090958095709561957F4F8F4F9F4F0895AC
S11304E0E89409C097FB3EF49095809570956195CA
S11304F07F4F8F4F9F4F9923A9F0F92F96E9BB2780
S11305009395F695879577956795B795F111F8CFFB
S1130510FAF4BB0F11F460FF1BC06F5F7F4F8F4F66
S11305209F4F16C0882311F096E911C0772321F05C
S11305309EE8872F762F05C0662371F096E8862FF4
S113054070E060E02AF09A95660F771F881FDAF74B
S1130550880F9695879597F9089557FD9058440FFD
S1130560551F59F05F3F71F04795880F97FB991F0E
S113057061F09F3F79F087950895121613061406CB
S1130580551FF2CF4695F1DF08C016161706180658
S1130590991FF1CF86957105610508940895E89433
S11305A0BB2766277727CB0197F908950E94E902B4
S11305B00C945A030E944C0338F00E94530320F019
S11305C0952311F00C9443030C94490311240C94C7
S11305D0D0020E94AD0270F3959FC1F3950F50E0D5
S11305E0551F629FF001729FBB27F00DB11D639FE1
S11305F0AA27F00DB11DAA1F649F6627B00DA11D87
S1130600661F829F2227B00DA11D621F739FB00D2C
S1130610A11D621F839FA00D611D221F749F33279C
S1130620A00D611D231F849F600D211D822F762F35
S11306306A2F11249F5750409AF0F1F088234AF012
S1130640EE0FFF1FBB1F661F771F881F915050407E
S1130650A9F79E3F510580F00C9443030C94D002FB
S11306605F3FE4F3983ED4F3869577956795B79505
S1130670F795E7959F5FC1F7FE2B880F911D96951F
S1130680879597F9089597F99F6780E870E060E08F
S113069008959FEF80EC089500240A941616170617
S11306A018060906089500240A941216130614065F
S11306B005060895092E0394000C11F4882352F0C2
S11306C0BB0F40F4BF2B11F460FF04C06F5F7F4F7A
S11306D08F4F9F4F089597FB072E16F4009407D071
S11306E077FD09D00E947F0307FC05D03EF4909566
S11306F081959F4F0895709561957F4F0895AA1B2A
S1130700BB1B51E107C0AA1FBB1FA617B70710F0F8
S1130710A61BB70B881F991F5A95A9F7809590952A
S1130720BC01CD010895AEE0B0E0E9E9F3E00C943A
S113073062060D891E898F89988D26E02C831A8381
S1130740098397FF02C080E090E801979E838D8320
S1130750AE01455E5F4F698D7A8DCE0101960E9490
S1130760C3034D815E8157FD0AC02F81388542172E
S113077053070CF49A01F801E20FF31F10822E962E
S1130780E4E00C947E06ABE0B0E0E9ECF3E00C941A
S113079054066C017B018A01FC0117821682838155
S11307A081FFCCC1CE0101963C01F6019381F70192
S11307B093FD859193FF81917F01882309F4BAC148
S11307C0853239F493FD859193FF81917F018532C0
S11307D029F4B60190E00E94BA05E7CF912C212CB0
S11307E0312CFFE1F315D8F08B3279F038F48032F4
S11307F079F08332A1F4232D20611DC08D3261F084
S1130800803369F4232D216016C0832D8260382E35
S1130810E32DE4603E2E2AC0F32DF8601DC037FCA2
S11308202DC020ED280F2A3040F08E32B9F436FC6A
S113083081C1232D2064322E19C036FE06C08AE001
S1130840989E200D1124922E11C0EAE02E9E200DB8
S11308501124222EF32DF0623F2E08C08C3621F491
S1130860832D8068382E02C0883641F4F70193FD49
S1130870859193FF81917F018111B3CF982F9F7D43
S11308809554933028F40C5F1F4F9FE399830DC058
S1130890833631F0833771F0833509F059C021C0B4
S11308A0F801808189830E5F1F4F88248394912CE3
S11308B0530113C02801F2E04F0E511CF801A0802F
S11308C0B18036FE03C0692D70E002C06FEF7FEF88
S11308D0C5010E94AF054C018201F32DFF773F2E25
S11308E016C0280122E0420E511CF801A080B180FC
S11308F036FE03C0692D70E002C06FEF7FEFC501C3
S11309000E94A4054C01F32DF0683F2E820133FCB4
S11309101BC0822D90E088169906B0F4B60180E2DF
S113092090E00E94BA052A94F4CFF50137FC859132
S113093037FE81915F01B60190E00E94BA05211053
S11309402A9421E0821A91088114910471F7E8C075
S1130950843611F0893641F5F80137FE07C060810D
S11309607181828193810C5F1F4F08C06081718106
S1130970072E000C880B990B0E5F1F4FF32DFF768B
S11309803F2E97FF09C090958095709561957F4F94
S11309908F4F9F4FF0683F2E2AE030E0A3010E9462
S11309A0F605882E861845C0853731F4232D2F7E11
S11309B0B22E2AE030E025C0932D997FB92E8F36D0
S11309C0C1F018F4883579F0B5C0803719F088374C
S11309D021F0B0C0E92FE061BE2EB4FE0DC0FB2DA6
S11309E0F460BF2E09C034FE0AC0292F2660B22E3F
S11309F006C028E030E005C020E130E002C020E17C
S1130A0032E0F801B7FE07C0608171818281938171
S1130A100C5F1F4F06C06081718180E090E00E5F23
S1130A201F4FA3010E94F605882E8618FB2DFF7721
S1130A303F2E36FE0DC0232D2E7FA22E891458F48E
S1130A4034FE0BC032FC09C0832D8E7EA82E05C057
S1130A50B82CA32C03C0B82C01C0B92CA4FE0FC021
S1130A60FE01E80DF11D8081803321F49A2D997ED9
S1130A70A92E09C0A2FE06C0B394B39404C08A2D63
S1130A80867809F0B394A3FC11C0A0FE06C0B2148A
S1130A9088F4280C922C9B180EC0B21460F4B60192
S1130AA080E290E00E94BA05B394F7CFB21418F430
S1130AB02B1802C0982C212CA4FE10C0B60180E390
S1130AC090E00E94BA05A2FE17C0A1FC03C088E70B
S1130AD090E002C088E590E0B6010CC08A2D8678CB
S1130AE059F0A1FE02C08BE201C080E2A7FC8DE2B6
S1130AF0B60190E00E94BA05891438F4B60180E387
S1130B0090E00E94BA059A94F7CF8A94F301E80D15
S1130B10F11D8081B60190E00E94BA058110F5CFE5
S1130B20222009F442CEB60180E290E00E94BA0588
S1130B302A94F6CFF6018681978102C08FEF9FEF4A
S1130B402B96E2E10C947006FC0105906150704014
S1130B500110D8F7809590958E0F9F1F0895FC0182
S1130B606150704001900110D8F7809590958E0FD8
S1130B709F1F08950F931F93CF93DF93FB0123814E
S1130B8021FD03C08FEF9FEF2CC022FF16C04681CA
S1130B905781248135814217530744F4A081B181E0
S1130BA09D012F5F3F4F318320838C9326813781B2
S1130BB02F5F3F4F3783268314C08B01EC01FB0169
S1130BC00084F185E02D0995892BE1F6D80116966C
S1130BD08D919C911797019617969C938E931697D7
S1130BE0CE01DF91CF911F910F910895FA01AA27A9
S1130BF0283051F1203181F1E8946F936E7F6E5F5C
S1130C007F4F8F4F9F4FAF4FB1E03ED0B4E03CD009
S1130C10670F781F891F9A1FA11D680F791F8A1FEC
S1130C20911DA11D6A0F711D811D911DA11D20D053
S1130C3009F468943F912AE0269F11243019305D0D
S1130C403193DEF6CF010895462F4770405D4193FE
S1130C50B3E00FD0C9F7F6CF462F4F70405D4A334B
S1130C6018F0495D31FD4052419302D0A9F7EACF13
S1130C70B4E0A6959795879577956795BA95C9F742
S1130C8000976105710508959B01AC010A2E069435
S1130C905795479537952795BA95C9F7620F731FEE
S1130CA0841F951FA01D08952F923F924F925F922B
S1130CB06F927F928F929F92AF92BF92CF92DF9268
S1130CC0EF92FF920F931F93CF93DF93CDB7DEB7CD
S1130CD0CA1BDB0B0FB6F894DEBF0FBECDBF099461
S1130CE02A88398848885F846E847D848C849B84B8
S1130CF0AA84B984C884DF80EE80FD800C811B81C6
S1130D00AA81B981CE0FD11D0FB6F894DEBF0FBEF4
S10D0D10CDBFED010895F894FFCF64
S1130D1A300000000025642E25322E32640056610C
S1130D2A6C6F722064652068756D656461643A004D
S9030000FC
