S01C00005072756562614465536572766F6D6F746F7265732E73726563E8
S11300000C9434000C9446000C9446000C94460066
S11300100C9446000C9446000C9446000C94460044
S11300200C9446000C9446000C9446000C94460034
S11300300C9446000C9446000C9446000C94460024
S11300400C9446000C9446000C9446000C94460014
S11300500C9446000C9446000C9446000C94460004
S11300600C944B010C94460011241FBECFEFD8E032
S1130070DEBFCDBF21E0A0E0B1E001C01D92A230FF
S1130080B207E1F70E9403010C9411030C940000E1
S113009084B1816084B985B18E7F85B98FE797E09B
S11300A00197F1F700C0000085B1816085B987E14F
S11300B091E00197F1F700C0000084B18E7F84B90C
S11300C087E696E00197F1F700C00000089520E06C
S11300D01EC094B1916094B995B19E7F95B99AE090
S11300E09A95F1F700C080FF03C095B1916095B96E
S11300F0EFEEF0E03197F1F700C0000095B19160A8
S113010095B9FAE0FA95F1F700C086952F5F28308B
S113011000F3089520E080E023C094B1916094B985
S113012095B19E7F95B99AE09A95F1F700C094B184
S11301309E7F94B9E5E3EA95F1F70000189B09C0A6
S113014041E050E0022E02C0440F551F0A94E2F72A
S1130150842BEBEDF0E03197F1F700C000002F5F46
S11301602830D8F20895CF930E9448008CEC0E9466
S1130170670084E40E9467002FEF8EE994E2215027
S113018080409040E1F700C000000E9448008CECE1
S11301900E9467008EEB0E9467000E948A00C82FAD
S11301A00E948A00682F70E0762F66276C2B80E00F
S11301B090E00E94160220E030E040E85DE30E94F7
S11301C07C020E94E701862FCF91089597B19F7C0E
S11301D097B9880F81608093BA0085E48093BC004E
S11301E0089580E290E00E94E30180E290E00E94A2
S11301F0E501089580E190E00E94E30183E190E04D
S11302000E94E501089540E054E060E070E080E081
S113021090E00E94980180E090E00E94D6010E9444
S1130220FA00F89484B1806184B985B1807E85B97F
S113023084B1816084B985B1816085B980E40E940C
S1130240E60078940E94B300809301018B3110F092
S11302500E94F10080910101873110F40E94FA009C
S113026080910001813031F485B1806185B90E94AB
S1130270F10007C0823029F485B1807E85B90E94DF
S1130280FA002FEF89EF90E0215080409040E1F791
S113029000C00000D7CF1F920F920FB60F92112407
S11302A08F93EF93FF938091B9008C7F8039C9F0CD
S11302B038F4803781F08038A1F0803661F50BC0C6
S11302C0883BC9F018F4883AB1F025C0803CE9F0C5
S11302D0883CD9F020C0ECEBF0E08081806880831A
S11302E01FC08091BB0080930001ECEBF0E08081A3
S11302F08068808315C0809101018093BB00ECEB82
S1130300F0E08081856C80830BC0ECEBF0E08081B1
S1130310846C808305C0ECEBF0E08081806980838D
S1130320FF91EF918F910F900FBE0F901F90189532
S11303302AB120642AB914BC15BC892B21F484B5D4
S1130340806884BD03C084B5806C84BD672B21F4B0
S113035084B5836084BD03C084B5816084BD4034AA
S11303605105C1F03CF44115510561F04830510587
S113037069F00895411581E0580781F04115544012
S113038089F0089585B5816085BD089585B582603D
S113039085BD089585B5836085BD089585B5846060
S11303A085BD089585B5856085BD08952AB120620F
S11303B02AB9892B21F484B5806284BD089584B55B
S11303C0806384BD089587BD089588BD08950E9403
S11303D05B0288F09F5798F0B92F9927B751B0F076
S11303E0E1F0660F771F881F991F1AF0BA95C9F7B5
S11303F014C0B13091F00E947502B1E008950C94DC
S11304007502672F782F8827B85F39F0B93FCCF38E
S1130410869577956795B395D9F73EF49095809531
S1130420709561957F4F8F4F9F4F0895E89409C051
S113043097FB3EF490958095709561957F4F8F4F13
S11304409F4F9923A9F0F92F96E9BB279395F69529
S1130450879577956795B795F111F8CFFAF4BB0FA7
S113046011F460FF1BC06F5F7F4F8F4F9F4F16C00B
S1130470882311F096E911C0772321F09EE8872F95
S1130480762F05C0662371F096E8862F70E060E051
S11304902AF09A95660F771F881FDAF7880F9695CA
S11304A0879597F9089557FD9058440F551F59F0B3
S11304B05F3F71F04795880F97FB991F61F09F3F4D
S11304C079F087950895121613061406551FF2CF76
S11304D04695F1DF08C0161617061806991FF1CFC6
S11304E086957105610508940895E894BB276627ED
S11304F07727CB0197F908950E948F020C9400038B
S11305000E94F20238F00E94F90220F0952311F0C3
S11305100C94E9020C94EF0211240C9476020E94CC
S1130520530270F3959FC1F3950F50E0551F629FDE
S1130530F001729FBB27F00DB11D639FAA27F00D38
S1130540B11DAA1F649F6627B00DA11D661F829F5F
S11305502227B00DA11D621F739FB00DA11D621F44
S1130560839FA00D611D221F749F3327A00D611D61
S1130570231F849F600D211D822F762F6A2F112443
S11305809F5750409AF0F1F088234AF0EE0FFF1F76
S1130590BB1F661F771F881F91505040A9F79E3FCD
S11305A0510580F00C94E9020C9476025F3FE4F369
S11305B0983ED4F3869577956795B795F795E79523
S11305C09F5FC1F7FE2B880F911D9695879597F92C
S11305D0089597F99F6780E870E060E008959FEFC1
S11305E080EC089500240A941616170618060906C6
S11305F0089500240A941216130614060506089595
S1130600092E0394000C11F4882352F0BB0F40F41C
S1130610BF2B11F460FF04C06F5F7F4F8F4F9F4F5C
S10906200895F894FFCFD9
S9030000FC
